:100000000C9434000C946E010C946E010C946E01EF
:100010000C946E010C946E010C946E010C946E01A4
:100020000C946E010C946E010C946E010C946E0194
:100030000C946E010C946E010C946E010C946E0184
:100040000C946E010C946E010C946E010C946E0174
:100050000C946E010C946E010C946E010C946E0164
:100060000C946E010C946E0111241FBECFEFD8E0EA
:10007000DEBFCDBF0E942E010C943E00F894FFCF4E
:100080000E94660180E490E00E945C01EBEBF0E0EE
:1000900080818062808380818F72808384E88093F6
:1000A000BC008091BC008823E4F70E94C500EBEB04
:1000B000F0E080818061808380818F71808384E81B
:1000C0008093BC008091BC008823E4F70E94C500A7
:1000D000EBEBF0E080818F70808384E88093BC003C
:1000E0008091BC008823E4F70E94C500EBEBF0E0B0
:1000F00080818061808380818072808384E88093A6
:10010000BC008091BC008823E4F70E94C500EBEBA3
:10011000F0E080818F70808384E88093BC008091C0
:10012000BC008823E4F70E94C500EBEBF0E080817F
:10013000806F808384E88093BC008091BC0088231A
:10014000E4F70E94C500EBEBF0E080818F708083C4
:1001500084E88093BC008091BC008823E4F70E946F
:10016000C500EBEBF0E080818066808380818F7634
:10017000808384E88093BC008091BC008823E4F7EE
:0A0180000E94C5000E944F0108957F
:10018A008FE39CE90197F1F700C00000EBEBF0E088
:10019A0080818860808384E88093BC008091BC0061
:1001AA008823E4F78FE39CE90197F1F700C0000088
:1001BA00EBEBF0E08081877F808384E88093BC004A
:1001CA008091BC008823E4F78FE39CE90197F1F75B
:0601DA0000C000000895C2
:1001E000EBEBF0E080818062808380818F7280837E
:1001F00084E88093BC008091BC008823E4F70E94CF
:100200001301EBEBF0E08081806D808380818F7D36
:10021000808384E88093BC008091BC008823E4F74D
:060220000E941301089585
:100226008FE39CE90197F1F700C00000EBEBF0E0EB
:1002360080818260808384E88093BC008091BC00CA
:100246008823E4F78FE39CE90197F1F700C00000EB
:060256000E94C50008959E
:10025C000E9441010E9440000E94660180E490E0EF
:10026C000E945C010E94F0000E94F0000E94F000CD
:06027C000E944F01FFCFBC
:1002820080E387B9E9EBF0E080818160808382E1DD
:0C0292008093B80084E08093BC000895C5
:10029E0084E98093BC002FEF81EE94E021508040E2
:0A02AE009040E1F700C00000089541
:1002B8008093BB0084E88093BC008091BC008823B5
:0402C800E4F70895BA
:1002CC0084EA8093BC008091BC008823E4F70895F5
:0402DC000C9400007E
:00000001FF
